:100000000C9447050C941F1A0C94F8190C949E1A22
:100010000C949E1A0C949E1A0C946F050C946F0508
:100020000C946F050C946F050C946F050C946F0580
:100030000C946F050C946F050C946F050C946F0570
:100040000C94AE190C946F050C946C1A0C94461A0F
:100050000C946F050C946F050C946F050C946F0550
:100060000C94161B0C946F05000103070F1F3F7FB4
:100070000080C0E0F0F8FCFE00000000003E5B4F96
:100080005B3E3E6B4F6B3E1C3E7C3E1C183C7E3CF8
:10009000181C577D571C1C5E7F5E1C00183C180006
:1000A000FFE7C3E7FF0018241800FFE7DBE7FF3096
:1000B000483A060E2629792926407F050507407F04
:1000C00005253F5A3CE73C5A7F3E1C1C08081C1C77
:1000D0003E7F14227F22145F5F005F5F06097F016D
:1000E0007F006689956A606060606094A2FFA29458
:1000F00008047E040810207E201008082A1C080826
:100100001C2A08081E101010100C1E0C1E0C303873
:100110003E3830060E3E0E06000000000000005F74
:1001200000000007000700147F147F14242A7F2A90
:100130001223130864623649562050000807030052
:10014000001C2241000041221C002A1C7F1C2A089E
:10015000083E080800807030000808080808000001
:1001600060600020100804023E5149453E00427F75
:10017000400072494949462141494D331814127FC4
:100180001027454545393C4A494931412111090764
:100190003649494936464949291E000014000000E5
:1001A00040340000000814224114141414140041B7
:1001B00022140802015909063E415D594E7C121174
:1001C000127C7F494949363E414141227F414141AC
:1001D0003E7F494949417F090909013E4141517327
:1001E0007F0808087F00417F41002040413F017F98
:1001F000081422417F404040407F021C027F7F0460
:1002000008107F3E4141413E7F090909063E4151A8
:10021000215E7F09192946264949493203017F0198
:10022000033F4040403F1F2040201F3F4038403F99
:10023000631408146303047804036159494D4300AF
:100240007F4141410204081020004141417F0402E6
:10025000010204404040404000030708002054547D
:1002600078407F284444383844444428384444285B
:100270007F385454541800087E090218A4A49C78AE
:100280007F0804047800447D40002040403D007F0A
:100290001028440000417F40007C047804787C08EA
:1002A0000404783844444438FC18242418182424BE
:1002B00018FC7C08040408485454542404043F44A3
:1002C000243C4040207C1C2040201C3C4030403CD2
:1002D00044281028444C9090907C4464544C440032
:1002E0000836410000007700000041360800020196
:1002F0000204023C2623263C1EA1A161123A404082
:10030000207A3854545559215555794122545478FE
:1003100042215554784020545579400C1E52721297
:100320003955555559395454545939555454580020
:1003300000457C410002457D420001457C407D1224
:1003400011127DF0282528F07C5455450020545486
:100350007C547C0A097F4932494949323A44444431
:100360003A324A4848303A4141217A3A424020786C
:10037000009DA0A07D3D4242423D3D4040403D3C6D
:1003800024FF2424487E4943662B2FFC2F2BFF0992
:1003900029F620C0887E0903205454794100004486
:1003A0007D413048484A32384040227A007A0A0A71
:1003B000727D0D19317D2629292F282629292926E4
:1003C00030484D4020380808080808080808382F29
:1003D00010C8ACBA2F102834FA00007B00000814B3
:1003E0002A142222142A14085500550055AA55AA89
:1003F00055AAFF55FF55FF000000FF00101010FF29
:1004000000141414FF001010FF00FF1010F010F083
:10041000141414FC001414F700FF0000FF00FF1474
:1004200014F404FC141417101F10101F101F1414C0
:10043000141F00101010F0000000001F101010100A
:100440001F10101010F010000000FF1010101010FE
:1004500010101010FF10000000FF140000FF00FF3C
:1004600000001F10170000FC04F4141417101714D8
:1004700014F404F40000FF00F714141414141414FA
:10048000F700F7141414171410101F101F1414146D
:10049000F4141010F010F000001F101F0000001FD7
:1004A00014000000FC140000F010F01010FF10FF0A
:1004B000141414FF141010101F00000000F010FF9F
:1004C000FFFFFFFFF0F0F0F0F0FFFFFF0000000083
:1004D00000FFFF0F0F0F0F0F3844443844FC4A4A07
:1004E0004A347E02020606027E027E0263554941BC
:1004F000633844443C04407E201E2006027E0202F3
:1005000099A5E7A5991C2A492A1C4C7201724C3006
:100510004A4D4D303048784830BC625A463D3E49DD
:100520004949007E0101017E2A2A2A2A2A44445F81
:10053000444440514A444040444A51400000FF0175
:1005400003E080FF000008086B6B08361236243683
:10055000060F090F060000181800000010100030E8
:1005600040FF0101001F01011E00191D1712003C70
:100570003C3C3C0000000000DB40A4A62EAF200065
:10058000A1C8D300408DAED580A800006000000057
:100590000000000000000000000000E0000000007B
:1005A00000000000000000000001E000000000006A
:1005B000000000000000000001F00000000000004A
:1005C0000000000000000003F00000000000000038
:1005D00000000000000007F0000000000000000024
:1005E000000000000007F80000000000000000000C
:1005F000000000000FF800000003C0007E000001B2
:10060000E0007F0FF800000003C000FE000001E0E2
:1006100000FFEFF800000003C000FE000001E00052
:10062000FFFFF800000003C000F00000000F007F93
:10063000FE7FC0000003C000F00000000F003FFE7E
:100640007FF83FF1FBCFFCFEF3BC3DEFE01FFE7FE8
:10065000FF7FFBFFDFFEFEFFBC3DEFE01FC6FFFF9D
:100660007FFBFFDFFEFEFFBC3DEFE00FE3C7FE7840
:100670007BC3DE1EF0FFBC3DEF0007FF87FC787BED
:10068000C3DE1EF0F83C3DEF0001FFFFF0007BC32E
:10069000C01EF0F03C3DEF0001F37FE03FFBC3CF15
:1006A000FEF0F03C3DEF0003E33F807FFBC3DFFE45
:1006B000F0F03C3DEF0007E73C00787BC3DE1EF026
:1006C000F03C3DEF0007FFBE00787BC3DE1EF0F07C
:1006D0003C3DEF0007FFFE00787BC3DE1EF0F03CE0
:1006E0003DEF000FFFFE007FFBFFDFFEF0F03FFD60
:1006F000EFE00FFFFF007FFBFFDFFEF0F03FFDEFBD
:10070000E00FF9FF003E79F9CF9EF0F01F3DE7E0E2
:100710001FF1FF0000000000000000000000001FAB
:1007200080FF007FFFFFFFFFFFFFFFFFFFE01C00D8
:100730007F007FFFFFFFFEB46D888D18E000001F73
:10074000007FFFFFFFFE95AD7DB577E000000F0055
:100750007FFFFFFFFEA5AD9D8D19E0000006007F25
:10076000FFFFFFFEB5ADEDB57EE00000000000012B
:100770008000000000000000000003800000000076
:10078000000000000007C0000000000000000000A2
:1007900007C00000000000000000000FC0000000C3
:1007A0000000000000001FE000000000000000004A
:1007B000001FE00000000000000000003FE000001B
:1007C000000000000000003FF000000000000000FA
:1007D00000007FF0000000000000001FF87FF00024
:1007E0000000000000003FFE7FF00000000000005D
:1007F000003FFF7FF0000000000000001FFFFBE053
:10080000000000000000000FFFF9FFC00000000022
:1008100000000FFFF9FFF800000000000007FFF1E3
:10082000FFFF00000000000003FC73FFFF800000DA
:1008300000000001FE3FFFFF80000000000000FFFD
:100840001E0FFF000000000000007FFE1FFC0000E4
:1008500000000000003FFFFFF80000000000000063
:100860000FDFFFE0000000000000001F19FFC000C4
:100870000000000000003F3CFF00000000000000FE
:10088000007E7CF800000000000000007FFE7C007D
:1008900000000000000000FFFFFC0000000000005E
:1008A0000000FFFFFE0000000000000000FFFFFE50
:1008B0000000000000000001FFEFFE00000000004B
:1008C000000001FFCFFE0000000000000003FF0752
:1008D000FE0000000000000003FC07FE0000000016
:1008E00000000003F003FE00000000000000018093
:1008F00000FE000000000000000000007E0000007C
:10090000000000000000003E0000000000000000A9
:1009100000000C000000000000078000FC00000345
:10092000C0000000078001FC000003C000000007B9
:100930008001FC000003C0000000078001E000000F
:10094000001E000000078001E00000001E007FE3A1
:10095000F79FF9FDE7787BDFC0FFF7FFBFFDFDFFE5
:10096000787BDFC0FFF7FFBFFDFDFF787BDFC0F0C6
:10097000F787BC3DE1FF787BDE00F0F787BC3DE107
:10098000F0787BDE0000F787803DE1E0787BDE00D9
:100990007FF7879FFDE1E0787BDE00FFF787BFFDF3
:1009A000E1E0787BDE00F0F787BC3DE1E0787BDEBC
:1009B00000F0F787BC3DE1E0787BDE00F0F787BC14
:1009C0003DE1E0787BDE00FFF7FFBFFDE1E07FFB6C
:1009D000DFC0FFF7FFBFFDE1E07FFBDFC07CF3F38B
:1009E0009F3DE1E03E7BCFC0000000000000000022
:1009F000000000FFFFFFFFFFFFFFFFFFFFC0FFFF43
:100A0000FFFFFD68DB111A31C0FFFFFFFFFD2B5A0E
:100A1000FB6AEFC0FFFFFFFFFD4B5B3B1A33C0FFDC
:100A2000FFFFFFFD6B5BDB6AFDC0000000002400E0
:100A300027002A000000000800020100000304074C
:100A400000000000000000002200FF210000000064
:100A50000023002600290000000000250028002BAC
:100A60000004040404040404040202020202020357
:100A70000303030303010204081020408001020461
:100A800008102001020408102000671C351C1124E6
:100A90001FBECFEFD8E0DEBFCDBF26E0ACEBB3E0AA
:100AA00001C01D92A531B207E1F713E0A0E0B1E06B
:100AB000ECE0F9E502C005900D92AC3BB107D9F727
:100AC00015E0C6E4D5E004C02197FE010E949828F5
:100AD000C534D107C9F70E94E71D0C94792C0C94FA
:100AE000000091E09093A0048093C2041092A104AE
:100AF0001092C3040895089508950895DF92EF9227
:100B0000FF920F931F93CF93DF93EC018091970592
:100B1000909198056981DC01ED91FC910190F08143
:100B2000E02D09958091970590919805DC01ED9154
:100B3000FC910190F081E02D6881099580919705E5
:100B400090919805DC01ED91FC910190F081E02DF0
:100B50006A8109958091970590919805DC01ED9146
:100B6000FC910190F081E02D6B81099580919705B2
:100B700090919805DC01ED91FC910190F081E02DC0
:100B80006C8109958091970590919805DC01ED9114
:100B9000FC910190F081E02D6D8109958091970580
:100BA00090919805DC01ED91FC910190F081E02D90
:100BB0006E8109950F8118850E5F1F4F80919705F3
:100BC00090919805E12EFF24DC01ED91FC910190BC
:100BD000F081E02D6E2D09958091970590919805F3
:100BE000DC01ED91FC910190F081E02D602F0995E1
:100BF0000E0D1F2D111D8E81080F111DD12C8091FE
:100C0000970590919805DC01ED91FC910190F081A0
:100C1000E02DED2CF12C2F813885E216F30660F4DF
:100C2000EC0EFD1ED70119966C910995F70181858F
:100C3000080F111DD394E3CF612F0995809197057B
:100C400090919805DC01ED91FC910190F081E02DEF
:100C5000602FDF91CF911F910F91FF90EF90DF9068
:100C60000994833081F028F4813099F08230A9F022
:100C700008958730A9F08830C9F08430B1F48091AC
:100C800080008F7D03C0809180008F7780938000EB
:100C9000089584B58F7784BD089584B58F7DFBCF8B
:100CA0008091B0008F778093B00008958091B0005C
:100CB0008F7DF9CFCF93DF93282F30E0F901EC5CE3
:100CC000F54F8491F901EB58F54FD491F901EF59A3
:100CD000F54FC491CC23A1F081110E943106EC2F75
:100CE000F0E0EE0FFF1FE35BF54FA591B491EC919F
:100CF000ED2381E090E009F480E0DF91CF91089549
:100D000080E090E0FACF1F93CF93DF93282F30E05D
:100D1000F901EC5CF54F8491F901EB58F54FD49152
:100D2000F901EF59F54FC491CC23A9F0162F811189
:100D30000E943106EC2FF0E0EE0FFF1FE95AF54F4D
:100D4000A591B4918FB7F894EC91111108C0D0958A
:100D5000DE23DC938FBFDF91CF911F910895DE2BAF
:100D6000F8CFCF93DF9390E0FC01EB58F54F24913F
:100D70008F59954FFC0184918823C9F090E0880F2A
:100D8000991FFC01E65DF54FA591B491FC01E95A6C
:100D9000F54FC591D49161110DC09FB7F8948C9116
:100DA000209582238C938881282328839FBFDF91FD
:100DB000CF910895623051F49FB7F8943C91822FFF
:100DC000809583238C93E8812E2BEFCF8FB7F894F7
:100DD000EC912E2B2C938FBFEACF3FB7F8948091E4
:100DE0004A0490914B04A0914C04B0914D0426B557
:100DF000A89B05C02F3F19F00196A11DB11D3FBF53
:100E0000BA2FA92F982F8827BC01CD01620F711D21
:100E1000811D911D42E0660F771F881F991F4A951B
:100E2000D1F708958F929F92AF92BF92CF92DF92A7
:100E3000EF92FF924B015C010E94ED066B017C0179
:100E40000E94ED066C197D098E099F09683E73406A
:100E500081059105A8F321E0821A9108A108B10843
:100E600088EEC80E83E0D81EE11CF11C81149104A9
:100E7000A104B10429F7FF90EF90DF90CF90BF90CD
:100E8000AF909F908F900895EF92FF920F931F93D2
:100E9000CF93DF93EC01F12CE12C10E000E0809186
:100EA000970590919805DC01ED91FC910084F18506
:100EB000E02D0995892B99F461E070E080E090E0E5
:100EC0000E941207BFEFEB1AFB0A88EEE81683E0D8
:100ED000F80628F38FEF37C002E010E0E0CF8091F2
:100EE000970590919805DC01ED91FC910284F385C2
:100EF000E02D09950930110508F03CC0F801ED57C7
:100F0000F84F0C9498288C079A07AA07AA07AA07F3
:100F1000AA07AF07B107B4078F3E09F0C0CF188208
:100F20008983C8010196065F1F4F0034110550F4F4
:100F30008C01B5CF28813981282B39832883213032
:100F40003F4E51F28EEFDF91CF911F910F91FF90A5
:100F5000EF900895FE01E00FF11F8083E2CF8E83B2
:100F6000E0CF1F828887DDCF2F813885282B3887F7
:100F70002F83D7CFFE01E00FF11F80832F813885AB
:100F8000C80108978217930761F680E0DCCF2FB77E
:100F9000F8946091460470914704809148049091C0
:100FA00049042FBF08958091720490917304891BA6
:100FB000990B08950895AF92BF92CF92DF92EF926E
:100FC000FF920F931F93CF93DF936C017B018B01F3
:100FD000040F151FEB015E01AE18BF08C017D10743
:100FE00059F06991D601ED91FC910190F081E02DCD
:100FF000C6010995892B79F7C501DF91CF911F9122
:101000000F91FF90EF90DF90CF90BF90AF90089539
:10101000FC01538D448D252F30E0842F90E0821BFE
:10102000930B541710F0CF96089501970895FC0183
:10103000918D828D981761F0A28DAE0FBF2FB11DDB
:101040005D968C91928D9F5F9F73928F90E0089533
:101050008FEF9FEF0895FC01918D828D981731F0ED
:10106000828DE80FF11D858D90E008958FEF9FEF41
:1010700008950F931F930E94C7076093CC04709349
:10108000CD048093CE049093CF0484EC94E00E942E
:101090002B0897FF1DC00E94C7070091CC04109138
:1010A000CD042091CE043091CF04601B710B820BD4
:1010B000930B0091C8041091C9042091CA04309187
:1010C000CB046017710782079307F8F28FEF9FEF49
:1010D0001F910F910895FC01918D228D892F90E031
:1010E000805C9F4F821B91098F739927089584EC30
:1010F00094E00E946B0821E0892B09F420E0822F04
:10110000089580E090E0892B29F00E9477088111F2
:101110000C9400000895FC01A48DA80FB92FB11DF7
:10112000A35ABF4F2C91848D90E001968F7399271D
:10113000848FA689B7892C93A089B1898C918370FB
:1011400080648C93938D848D981306C00288F389F4
:10115000E02D80818F7D80830895EF92FF920F9321
:101160001F93CF93DF93EC0181E0888F9B8D8C8D53
:1011700098131AC0E889F989808185FF15C09FB747
:10118000F894EE89FF896083E889F989808183700A
:10119000806480839FBF81E090E0DF91CF911F91B9
:1011A0000F91FF90EF900895F62E0B8D10E00F5FDA
:1011B0001F4F0F731127E02E8C8D8E110CC00FB6B0
:1011C00007FCFACFE889F989808185FFF5CFCE0148
:1011D0000E948B08F1CFEB8DEC0FFD2FF11DE35A30
:1011E000FF4FF0829FB7F8940B8FEA89FB898081CB
:1011F0008062CFCFCF93DF93EC01888D8823B9F045
:10120000AA89BB89E889F9898C9185FD03C0808111
:1012100086FD0DC00FB607FCF7CF8C9185FFF2CF8E
:10122000808185FFEDCFCE010E948B08E9CFDF9151
:10123000CF9108952091F0053091F10528173907D5
:1012400071F49091400480914104981741F0E0912D
:101250004004F0E0E050FC4F808190E008958FEF73
:101260009FEF0895EF92FF920F931F93CF93DF9319
:10127000DC015C96ED90FC905D97E114F10479F44B
:1012800081E090E013969C938E93129790E080E01B
:10129000DF91CF911F910F91FF90EF90089551969C
:1012A000ED91FC91529750968C915097982F909574
:1012B0000FB75E962C915E97122F127021FD6095EC
:1012C000F8942081112319F1282B2083E70121971D
:1012D000F1F728E0462F50E0308160FF1AC0382B2C
:1012E0003083E7012197F1F7BA0175956795215091
:1012F00089F7112381F08081892380830FBF5C9659
:101300008D919C910197F1F781E090E0C1CF292365
:10131000DCCF3923E5CF9081892BEFCF2091F005E9
:101320003091F1052817390761F48091410420912B
:10133000400490E0805C9F4F821B91098F73992736
:10134000089590E080E008952091F0053091F10536
:1013500028173907B9F490914004809141049817F7
:1013600089F0E0914004F0E0E050FC4F8081209152
:10137000400430E02F5F3F4F2F733327209340040A
:1013800090E008958FEF9FEF0895CF92DF92EF9254
:10139000FF92CF930E94C707C0906105D09062056D
:1013A000E0906305F09064056C197D098E099F0932
:1013B000683873418105910568F30E943908FC0182
:1013C00097FD50C08D32910521F0C0970A9708F023
:1013D00042C0C12CD12C7601C0E0E130F105D1F042
:1013E000ED32F105E9F1CF01C0970A9798F4AAE030
:1013F000B0E0A70196010E947F276F01FF0FEE0862
:10140000FF08C60ED71EE81EF91E80E3C81AD108D1
:10141000E108F10884EC94E00E9417080E94390862
:10142000FC01C0970A97C8F2E130F105B1F2CC2374
:1014300041F0F094E094D094C094C11CD11CE11C04
:10144000F11CCC2009F4A6CF8C2DCF91FF90EF900A
:10145000DF90CF90089584EC94E00E941708ADCF00
:10146000C1E0D8CFC12CD12C7601EBCF2091DD0388
:10147000260F3327331F21323105ECF420919A04D3
:10148000FC0190E080E0243069F082E00895A091B2
:10149000DD032191AC0143545C4FA40FB52FB11D66
:1014A0002C930196861798F38091DD03680F609363
:1014B000DD0380E0089581E0089510929A0481E0B0
:1014C000809399041092740461E082E10E94830683
:1014D00061E083E10E948306E9EBF0E080818E7F8A
:1014E000808380818D7F808388E48093B80085E449
:1014F0008093BC00089510927304109272041092AD
:10150000A1041092C3040E945D0A8BE795E09093BA
:101510007104809370048CE795E090936F0480933E
:101520006E040895CF93DF9391E09093BC038823DA
:10153000B9F0C091B800D091BA008091BC008A7B0C
:101540008093BC0060E082E10E94830660E083E15A
:101550000E9483060E945D0AD093BA00C093B8002F
:10156000DF91CF9108958F929F92AF92BF92CF92C9
:10157000DF92EF92FF920F931F93CF93DF93D0915F
:10158000C304D13208F0D7C0182FC091C2040E9402
:10159000ED066B017C0180919A0481116BC082E0A1
:1015A00080939A04109399048FEF8093980410927B
:1015B0009704D0939604A2EAB4E0E6E7F4E080E072
:1015C000D81391C01092750480917504CC0FC82B6C
:1015D000C093750480917404813009F088C0109222
:1015E00074040E94ED066B017C0180917504809368
:1015F000BB0080919C0490919D04A0919E04B091A9
:101600009F04892B8A2B8B2BA1F00E94ED06009161
:101610009C0410919D0420919E0430919F046C19AC
:101620007D098E099F09061717072807390708F44F
:1016300042C08091BC0083FDD8CF85EC8093BC0074
:101640000E94ED066B017C0180919A04823009F4BE
:1016500050C0809198048F3F09F46FC08091980426
:10166000803209F46CC080919804803309F469C019
:1016700084E026C080919C0490919D04A0919E04DA
:10168000B0919F04892B8A2B8B2B09F484CF0E9465
:10169000ED0680909C0490909D04A0909E04B090D4
:1016A0009F046C197D098E099F0986169706A80666
:1016B000B90608F070CF80919B040E94920A85E0E1
:1016C0001092A1041092C3041092A004DF91CF9154
:1016D0001F910F91FF90EF90DF90CF90BF90AF9050
:1016E0009F908F9008959D9191938F5F69CF85EE24
:1016F000A5CF80919C0490919D04A0919E04B091EF
:101700009F04892B8A2B8B2B09F49ECF0E94ED0618
:1017100000919C0410919D0420919E0430919F049F
:101720006C197D098E099F090617170728073907C5
:1017300008F08ACFC0CF81E0C3CF80E0C1CF82E084
:10174000BFCF83E0BDCF8F929F92AF92BF92CF92D7
:10175000DF92EF92FF920F931F93CF93DF93D82FD7
:10176000C62F142F613208F09CC00E94ED066B0159
:101770007C0180919A0481116FC081E080939A046A
:10178000109399049FEF90939804109297049C0FE4
:10179000909396048093750480917504DD0FD82B87
:1017A000D093750480917404813009F07CC010924C
:1017B00074040E94ED066B017C0180917504809396
:1017C000BB0080919C0490919D04A0919E04B091D7
:1017D0009F04892B8A2B8B2BA1F00E94ED06009190
:1017E0009C0410919D0420919E0430919F046C19DB
:1017F0007D098E099F09061717072807390708F47E
:101800004CC08091BC0083FDD8CF85EC8093BC0098
:101810000E94ED066B017C0180919A04813009F4ED
:1018200044C0809197048C1710F4C0919704E6E7A8
:10183000F4E0AEE4B4E080E08C1359C08C2FDF916B
:10184000CF911F910F91FF90EF90DF90CF90BF90BD
:10185000AF909F908F90089580919C0490919D04EB
:10186000A0919E04B0919F04892B8A2B8B2B09F4A5
:1018700080CF0E94ED0680909C0490909D04A090E3
:101880009E04B0909F046C197D098E099F098616ED
:101890009706A806B90608F06CCF80919B040E94B9
:1018A000920AC0E0CBCF85EEB1CF80919C0490919D
:1018B0009D04A0919E04B0919F04892B8A2B8B2BB1
:1018C00009F4AACF0E94ED0600919C0410919D049A
:1018D00020919E0430919F046C197D098E099F0907
:1018E000061717072807390708F096CFD6CF91912A
:1018F0009D938F5FA1CFE091730480917204E817EC
:1019000030F4F0E0E25BFB4F808190E008958FEFD0
:101910009FEF089590917304809172042FEF3FEF31
:10192000981748F4E92FF0E0E25BFB4F208130E0AC
:101930009F5F90937304C9010895CF92DF92EF9255
:10194000FF920F931F93CF93DF937C01CB018A010A
:101950002091A004222389F0EB016B01C40ED51E57
:10196000CC15DD0569F06991D701ED91FC910190ED
:10197000F081E02DC7010995F3CF642F0E94360A4C
:10198000C801DF91CF911F910F91FF90EF90DF90F1
:10199000CF900895CF93DF931F92CDB7DEB76983C1
:1019A0002091A0042223F9F02091C304203258F0A2
:1019B00021E030E0FC013383228390E080E00F904F
:1019C000DF91CF9108958091A104E82FF0E0EE55CA
:1019D000FB4F998190838F5F8093A1048093C30410
:1019E00081E090E0ECCF61E0CE0101960E94360AE2
:1019F000F7CF81E00C94B30ACF93DF93EC018B8196
:101A0000882371F088810E94710589819A810E94E2
:101A1000F90C91E0811190E0892FDF91CF91089529
:101A20000E947B0A81E08B83CE010E94FC0C982FE0
:101A30008111E8CFF1CF0895FC016370668B84813A
:101A4000958126813781613039F0633029F09187A3
:101A500080873387228708953187208793878287FD
:101A600008952F923F924F925F926F927F928F9242
:101A70009F92AF92BF92CF92DF92EF92FF920F931D
:101A80001F93CF93DF93CDB7DEB76A970FB6F89465
:101A9000DEBF0FBECDBF9A8F898F7A8369834A01DB
:101AA000D22E18870F833701BC2CDC0159962D915B
:101AB0003C915A972115310509F015C118968D9161
:101AC0009C911997681779070CF0D7C11A968D91D8
:101AD0009C91481759070CF0D0C14C2C512CB6E002
:101AE000CB9E600D711D11247C876B87161617061F
:101AF0000CF0C3C1EA2DF0E0FA87E98793E0EE0F1E
:101B0000FF1F9A95E1F7F88BEF87CF01840F951FA0
:101B1000181619060CF0B1C1A98DBA8D58968C9182
:101B2000811104C0BFEABD1508F4D394A98DBA8D04
:101B3000ED91FC9111970284F385E02DCD0109957B
:101B4000B5E0DB9EC0011124E981FA81FC83EB83BF
:101B5000312C212C9C0128583F4F388F2F8B4A2D38
:101B600050E05E8B4D8BEF89F88DE20DF31D4491B3
:101B70009E828D82D12CC12C69817A81620D731D68
:101B80007A8B698B842F90E09C8B8B8BE98DFA8DFF
:101B9000A081B18140FF82C0F1E0BF126FC0AF12DF
:101BA0006DC01C96ED91FC912F813885A4014C0DE0
:101BB0005D1D69897A89898D9A8D0995EB89FC89E2
:101BC000F595E7954E2F5FEFC51AD50A6D817E8199
:101BD0008D899E89680F791F7E836D8398E0C91671
:101BE000D10481F6AFEF2A1A3A0AEB81FC81E40DA9
:101BF000F51DFC83EB83F5E02F16310409F0B3CF1C
:101C00002F81388526153705B9F0A98DBA8DED914C
:101C1000FC91B1E0BB1257C0AB1255C069817A810B
:101C20006B5F7F4F0088F189E02D830128E030E071
:101C3000A401898D9A8D0995A98DBA8DED91FC919C
:101C400011970688F789E02DCD016A960FB6F894B2
:101C5000DEBF0FBECDBFDF91CF911F910F91FF90DF
:101C6000EF90DF90CF90BF90AF909F908F907F903C
:101C70006F905F904F903F902F9009941E96ED913A
:101C8000FC91EF80F88409851A8592014D815E816F
:101C90006B817C81898D9A8D099590CF2F813885B4
:101CA0002615370509F48ACF31E0B31207C0A31215
:101CB00005C01C96ED91FC91930178CF1E96ED9195
:101CC000FC917301E0CF6B857C85641975090684EE
:101CD000F785E02D73010F8518899201A401898D84
:101CE0009A8D0995A9CFF90134969491329745912F
:101CF0005491D91AB7E0DB9E400D511D1124F90112
:101D0000259134913C8B2B8BFA0125903490FA016C
:101D10003296749031963491398B32966490319624
:101D2000449041E04C1518F04A1508F07FC0662D2C
:101D3000062C000C770B7C836B83842D042C000C09
:101D4000990B9E838D83A98DBA8DED91FC9111978E
:101D50000284F385E02DCD010995512CD12CC12CA5
:101D6000EA2DF0E0FA87E9872B2D30E03C872B87BE
:101D7000A401440D511D47FC5A95588F4F8B698122
:101D80007A81660D711D67FC7A957E876D877989EA
:101D9000C71608F051CF2C2D30E04D815E81420FE7
:101DA000531FA985BA854A9FC0014B9F900D5A9F2A
:101DB000900D1124FC01E80DF91DF88BEF87852D9E
:101DC000612C4F89588D420F531F5E8B4D8B6714CA
:101DD00008F050C044244394480E877041F4C10178
:101DE0000196EB89FC89E20DF31DD4901C01D7FE0E
:101DF00019C0A98DBA8DED91FC91662D70E0B1E00E
:101E0000BB1219C0AB1217C02D853E85620F731F20
:101E10000484F585E02D2F8138854D895E89898D73
:101E20009A8D0995DD0C6394842DD1CF1E821D827D
:101E30001C821B8288CF4B815C81640F751FAB8530
:101E4000BC856A9FC0016B9F900D7A9F900D1124F5
:101E500069817A81680F791F0684F785E02DEF800C
:101E6000F88409851A859D014F855889898D9A8D39
:101E70000995D8CF570CC3948ACF6A960FB6F894B9
:101E8000DEBF0FBECDBFDF91CF911F910F91FF90AD
:101E9000EF90DF90CF90BF90AF909F908F907F900A
:101EA0006F905F904F903F902F9008958F929F92E8
:101EB000AF92CF92EF92FF920F931F93CF93DF9346
:101EC000EC01262F898D9A8D009709F051C06A3058
:101ED000D1F41D861C868D8948E0849F90011124D1
:101EE0008E859F85820F931F9F878E8781E090E06C
:101EF000DF91CF911F910F91FF90EF90CF90AF9016
:101F00009F908F9008956D3089F3CC88AD888F892C
:101F10008823C1F08C859D8536E0C39E800D911D80
:101F20001124488559854817590764F44E855F8503
:101F30001D861C8638E0A39EC0011124840F951FC6
:101F40009F878E87EA88FB88088919894E855F8577
:101F50006C857D85CE010E94310D2C898C859D85F7
:101F600046E0249F800D911D11249D878C87BECF54
:101F70006A3069F41D861C86FC013896E4912D892F
:101F80008E859F85E29F800D911D1124ADCF6D3010
:101F900009F4ACCFFC0134963491631708F4A6CF52
:101FA0003296E491E61708F4A1CFFC0132968590B1
:101FB0009490462F431B342F47E0349F800C911C94
:101FC0001124F401329634913196E4913323A9F12E
:101FD000EE2399F1CC88F4013596E491AD884F89D0
:101FE000442301F10E2E000CFF0BE30FF11DCE9EDA
:101FF000A001CF9E500D11246C857D85460F571F83
:1020000068857985641775076CF44E855F851D8634
:102010001C86FC013896E491AE9E400D511D1124A2
:102020005F874E87EA88FB88088919894E855F8516
:102030006C857D85CE010E94310DF4013496E491CA
:102040002C898C859D85E29F800D911D11248DCF5B
:102050006F927F928F929F92AF92BF92CF92DF92B8
:10206000EF92FF920F931F93CF93DF93EC016B01DD
:102070005A0139014801E881F9810284F385E02D94
:102080000995E881F9810288F389E02D87019301A0
:10209000A501B601CE010995A501480D591D415074
:1020A0005109E881F9810288F389E02D9301B60195
:1020B000CE010995E881F9810088F189E02D94012C
:1020C000A501B601CE010995C60CD71CB601615019
:1020D0007109E881F9810088F189E02D9401A50159
:1020E000CE010995E881F9810688F789E02DCE01B6
:1020F000DF91CF911F910F91FF90EF90DF90CF90E4
:10210000BF90AF909F908F907F906F9009946F9247
:102110007F928F929F92AF92BF92CF92DF92EF9277
:10212000FF920F931F93CF93DF935C01EB016A0142
:10213000490138018701DC01ED91FC9162177307B9
:1021400019F5641675062CF0962D872D3A01C92EC7
:10215000D82E9601261937092F5F3F4F048CF58D35
:10216000E02DA301BE01C5010995DF91CF911F911B
:102170000F91FF90EF90DF90CF90BF90AF909F9026
:102180008F907F906F9008954615570591F426170C
:10219000370724F0892D4B01C22FD82F9E01281913
:1021A00039092F5F3F4F068CF78DE02DA601B40152
:1021B000DACF0284F385E02D0995D501ED91FC91EC
:1021C0000488F589E02D83019401A601BE01C501B3
:1021D0000995D501ED91FC910688F789E02DC5019F
:1021E000DF91CF911F910F91FF90EF90DF90CF90F3
:1021F000BF90AF909F908F907F906F900994EF92D7
:10220000FF920F931F93DC011A960D911C911B975F
:1022100018962D913C911997ED91FC9100A0F1A198
:10222000E02D7B0150E040E070E060E009951F91F7
:102230000F91FF90EF9008954F925F926F927F926F
:102240008F929F92AF92BF92CF92DF92EF92FF92C6
:102250000F931F93CF93DF936C012B015A01390128
:102260004801DC01ED91FC910284F385E02D099594
:10227000E201640C751CD601ED91FC91C615D705E1
:102280005CF40088F189E02D87019401A501BE016D
:10229000C60109952196EFCF0688F789E02DC60182
:1022A000DF91CF911F910F91FF90EF90DF90CF9032
:1022B000BF90AF909F908F907F906F905F904F9066
:1022C00009948F929F92AF92BF92CF92DF92EF923A
:1022D000FF920F931F93CF93DF93EC015B014A01B1
:1022E0006901E881F9810284F385E02D0995950162
:1022F0002C0D3D1D21503109E881F9810488F589B3
:10230000E02D78018401A401B501CE010995E88191
:10231000F9810688F789E02DCE01DF91CF911F91D9
:102320000F91FF90EF90DF90CF90BF90AF909F9074
:102330008F9009948F929F92AF92BF92CF92DF922B
:10234000EF92FF920F931F93CF93DF93EC015B010A
:102350004A0169017801E881F9810284F385E02D61
:102360000995C80CD91C860101501109E881F98131
:102370000488F589E02D9501A401B501CE010995E8
:10238000E881F9810688F789E02DCE01DF91CF91B0
:102390001F910F91FF90EF90DF90CF90BF90AF9083
:1023A0009F908F900994EF92FF920F931F93DC01FF
:1023B000ED91FC9100A0F1A1E02D09951F910F91E5
:1023C000FF90EF9008950F931F93DC01ED91FC9126
:1023D000068CF78DE02D09951F910F9108950F93AD
:1023E0001F93DC01ED91FC91048CF58DE02D099596
:1023F0001F910F910895DC01ED91FC910084F1850E
:10240000E02D09943F924F925F926F927F928F924C
:102410009F92AF92BF92CF92DF92EF92FF920F9373
:102420001F93CF93DF935C017B014A01690139015E
:1024300087E0680E711C93E0759467949A95E1F7B4
:102440002B01400E511E10E000E0312CD0E0C0E026
:10245000CE0187709927330C892B59F4FE0183E054
:10246000F595E7958A95E1F7E00FF11FE80DF91D65
:10247000349037FE0AC021E030E0A701B5016C0FAF
:102480007D1F8DEA95E00E94FB112196CC16DD069A
:10249000F9F68FEFE81AF80A060D171DE414F50493
:1024A000A9F6DF91CF911F910F91FF90EF90DF90F0
:1024B000CF90BF90AF909F908F907F906F905F90E4
:1024C0004F903F9008952F923F924F925F926F925C
:1024D0007F928F929F92AF92BF92CF92DF92EF92B4
:1024E000FF920F931F93CF93DF9300D000D000D0C3
:1024F000CDB7DEB73C016A013E832D83FC82EB82BF
:102500005801A41AB50AB7FE03C0B194A194B1084A
:102510008D809E80861A970A97FE03C091948194BD
:1025200091088A149B045CF0902F812F0D811E81ED
:102530009D838E839C2D8D2D6B01692F782F0C151B
:102540001D055CF09D818E817E836D83692F782FC0
:10255000902F812F8601C92ED82E1601201A310AFC
:102560002B012D813E81421A530A57FE03C051941C
:1025700041945108710137FE03C03FEFE31AF30A9B
:10258000F594E7948D819E81861797075CF5A1E00D
:10259000B0E0BA83A983C016D1064CF1D301ED9106
:1025A000FC910484F585E02D2B813C81A8016D818F
:1025B0007E818A149B041CF04D815E81B801C301A9
:1025C0000995E418F508F7FE0AC02D813E8189813E
:1025D0009A81280F391F3E832D83E20CF31C0F5F75
:1025E0001F4FD9CF2FEF3FEF3A832983D4CF2696C1
:1025F0000FB6F894DEBF0FBECDBFDF91CF911F9114
:102600000F91FF90EF90DF90CF90BF90AF909F9091
:102610008F907F906F905F904F903F902F90089594
:10262000EF92FF920F931F93CF93DF93EC01EC8017
:10263000FD806E157F050CF070C057FF04C0240F9D
:10264000351F50E040E08E819F81FA01E20FF31FB9
:102650008E179F071CF49C01241B350B12161306C2
:102660000CF05BC0922F842F8695869586958E9D63
:10267000D0018F9DB00D11246A0F7B1FAF8DB8A1C3
:10268000A60FB71F477049F188E0841B482F682FB9
:1026900070E0FB01E059FF4FE491281708F063C098
:1026A000621B71092FEF30E002C0359527956A95BE
:1026B000E2F7E2230130110539F0B0F102301105E3
:1026C00061F58C91E82702C08C91E82BEC9394176C
:1026D00020F12C813D81A20FB31FE92FE41BE830CC
:1026E00078F00230110521F58E2F9C9190959C93E6
:1026F0002C813D81A20FB31F88508830B0F7E7705E
:10270000EE2359F0F0E0E859FF4FE4910130110554
:10271000F9F010F10230110519F1DF91CF911F91FD
:102720000F91FF90EF900895E0958C91E823CECF24
:1027300081E00115110509F480E081959E2F8C93AD
:102740002C813D81A20FB31F98509830C0F7D7CF8E
:102750008C91E82BEC93E1CFE0958C91E823FACFB4
:102760008C91E827F7CF0130110509F4ADCFE0F2E5
:102770000230110509F4A5CFAE0DBF1DAECF0F93EA
:102780001F93CF93DF9377FF04C0260F371F70E0AE
:1027900060E0DC011496CD91DC91FB01E20FF31FA8
:1027A000CE17DF071CF49E01261B370B12161306EB
:1027B0004CF5FA0157FD3796A3E0F595E795AA95F4
:1027C000E1F7EC9FD001ED9FB00DFC9FB00D1124FF
:1027D0006A0F7B1FDC015F96ED91FC91E60FF71FFE
:1027E0004770552781E090E001C0880F4A95EAF7CD
:1027F000482F0130110559F0A8F02E0F3F1F02306D
:102800001105E1F0DF91CF911F910F9108952E0FE7
:102810003F1FE217F307B1F38191DF011197842B7A
:102820008C93F7CF80952E0F3F1FE217F30751F3DC
:102830009191DF01119798239C93F7CFE217F3074B
:1028400009F38191DF01119784278C93F7CF0F93C0
:102850001F93FA01DC0156964C9156974230E9F0ED
:102860004330A1F1413061F514964D915C91DA014C
:10287000AE1BBF0BFD01E21BF30B77FD0BC0DC01B0
:1028800016964D915C916417750724F4AB01BF0156
:102890000E94BF131F910F91089514964D915C9162
:1028A000DA01A61BB70BBD0161507109DC01169658
:1028B0004D915C91DA01AE1BBF0BFD01E21BF30BE6
:1028C00077FDE8CFAF010E941013E4CF16964D912B
:1028D0005C91DA01A61BB70BBD0161507109CDCF28
:1028E0000F931F93FA01DC0156964C915697423094
:1028F000A9F0433091F1413019F514964D915C9156
:10290000DA01AE1BBF0BFD013197F7FD04C0AB012F
:10291000BF010E9410131F910F91089514964D91BD
:102920005C91DA01A61BB70BBD01DC0116964D9137
:102930005C91DA01AE1BBF0BFD013197621B730B7B
:10294000F7FDE9CFDC0116964D915C91E417F50790
:1029500014F7AF010E94BF13DECF16964D915C9124
:10296000DA01A61BB70BBD01621B730BCECFFC01B6
:1029700077FD64C080859185681779070CF05EC08B
:1029800057FD5CC082859385481759070CF056C0E7
:1029900086898230B1F0833029F1813041F484811D
:1029A0009581841B950BAB01BC01615071092130ED
:1029B000310509F108F443C02230310509F463C040
:1029C000089584819581DC01A61BB70BBD01615080
:1029D000710986819781DC01A41BB50BAD014150C3
:1029E0005109E5CF86819781861B970BBA01AC010F
:1029F00041505109DCCFCA0157FD0796A3E09595D8
:102A00008795AA95E1F7A481B5818A9F90018B9F54
:102A1000300D9A9F300D1124620F731F078CF0A1A7
:102A2000E02DE60FF71F4770552721E030E001C089
:102A3000220F4A95EAF78081822B80830895CA018C
:102A400057FD079633E0959587953A95E1F7A48170
:102A5000B5818A9F90018B9F300D9A9F300D112474
:102A6000620F731F078CF0A1E02DE60FF71F477070
:102A7000552781E090E001C0880F4A95EAF78095DC
:102A800090818923DACFCA0157FD079623E09595F7
:102A900087952A95E1F7A481B5818A9F90018B9F44
:102AA000300D9A9F300D1124620F731F078CF0A117
:102AB000E02DE60FF71F4770552721E030E001C0F9
:102AC000220F4A95EAF780818227B7CF08958EBDFD
:102AD00000000DB407FEFDCF8EB50895EF92FF9272
:102AE0000F931F93CF937C01C62F8091CA059091BD
:102AF000CB05892B09F44EC08091CE050E9471054B
:102B00008091CA059091CB05DC01ED91FC9101907B
:102B1000F081E02D60E009958701EE24E394F12C2B
:102B2000C1508091CA059091CB05CF3F61F1B0E2D1
:102B3000EB16F104A8F00E94F90C8091CE050E94DA
:102B400071058091CA059091CB05DC01ED91FC9156
:102B50000190F081E02D60E00995EE24E394F12CE2
:102B60008091CA059091CB05F8016491DC01ED914B
:102B7000FC910190F081E02D0995BFEFEB1AFB0A63
:102B80000F5F1F4FCDCFCF911F910F91FF90EF900F
:102B90000C94F90CE091DA05F091DB0590818091BD
:102BA000E0058095892380838701C15008F438C0EF
:102BB000F80184912091C8053091C905232B29F093
:102BC0000E9467150F5F1F4FF0CF28E030E040E80C
:102BD000E091D605F091D7059091DE05582F54234A
:102BE000D9F05081952B9083E091D805F091D905CB
:102BF00090815091DF05952B9083E091D805F0915D
:102C0000D90550819091DF05909595239083469545
:102C100021503109E9F6D6CF508190959523E3CF25
:102C2000CF911F910F91FF90EF9008951F93CF9335
:102C3000DF93EC018D8D9E8D892BF9F0162F89A1E4
:102C40000E9471058D8D9E8DDC01ED91FC910190AE
:102C5000F081E02D60E009958D8D9E8DDC01ED9178
:102C6000FC910190F081E02D612F09958D8D9E8D55
:102C7000DF91CF911F910C94F90CADA5BEA59C914D
:102C80008BA9809589238C938B8D9C8D892B31F01A
:102C9000862FDF91CF911F910C94671528E030E0CB
:102CA00080E8A9A5BAA599A9462F4823C1F04C915F
:102CB000942B9C93ABA5BCA59C914AA9942B9C9367
:102CC000ABA5BCA54C919AA9909594239C9386950D
:102CD0002150310931F7DF91CF911F9108954C9127
:102CE00090959423E6CF8CBD9DBD0895EF92FF9201
:102CF0000F931F93CF93DF938091CA059091CB05DB
:102D0000892B09F48DC02091E2053091E3054091B3
:102D1000E4055091E50560E074E284EF90E00E94E4
:102D20007628205131094109510956954795379523
:102D300027952093B80065E088E49AE00E946E151C
:102D40006091B10561508DEA95E00E9416162091C0
:102D5000B3053091B405C901079697FD079633E096
:102D6000959587953A95E1F72091B1053091B20597
:102D7000829F8001839F100D929F100D1124C0919E
:102D8000CC05D091CD058091CA059091CB050C0F53
:102D90001D1F892B09F483C08091CE050E94710507
:102DA0008091CA059091CB05DC01ED91FC910190D9
:102DB000F081E02D60E40995EE24E394F12C8091FC
:102DC000CA059091CB050C171D0709F440C0B0E26D
:102DD000EB16F104A8F00E94F90C8091CE050E9438
:102DE00071058091CA059091CB05DC01ED91FC91B4
:102DF0000190F081E02D60E40995EE24E394F12C3C
:102E00008091CA059091CB056991DC01ED91FC910F
:102E10000190F081E02D0995BFEFEB1AFB0ACFCFAF
:102E20008091C8059091C905892B31F08091EB05FF
:102E30009091EC050E947316E091DC05F091DD05A0
:102E400090818091E10580958923808374CF0E94D1
:102E5000F90C8091CA059091CB05892B09F460C0CB
:102E60002091E6053091E7054091E8055091E9058C
:102E700060E074E284EF90E00E94762820513109EE
:102E80004109510956954795379527952093B800E4
:102E9000DF91CF911F910F91FF90EF900895E091F6
:102EA000DA05F091DB0580819091E005892B808324
:102EB0000C171D0771F289912091C8053091C90541
:102EC000232B19F00E946715F3CF28E030E040E88B
:102ED000E091D605F091D7059091DE05582F542347
:102EE000D9F05081952B9083E091D805F091D905C8
:102EF00090815091DF05952B9083E091D805F0915A
:102F0000D90550819091DF05909595239083469542
:102F100021503109E9F6CCCF508190959523E3CF2C
:102F2000E091DC05F091DD0580819091E105892B30
:102F30008083AECF1F93CF93DF93EC01162F8D8D3F
:102F40009E8D892BB1F12DA93EA94FA958AD60E006
:102F500074E284EF90E00E94762820513109410903
:102F6000510956954795379527952093B80066EAFD
:102F7000111167EACE010E9416168D8D9E8D892B48
:102F800041F129AD3AAD4BAD5CAD60E074E284EF48
:102F900090E00E9476282051310941095109569547
:102FA0004795379527952093B800DF91CF911F91D2
:102FB00008958B8D9C8D892B21F08EAD9FAD0E9445
:102FC0007316EFA5F8A990818CA980958923808339
:102FD000CECFEFA5F8A980819CA9892B8083E5CF6E
:102FE000089590E080E008958F929F92AF92BF92F3
:102FF000CF92DF92EF92FF926B017C010E94C70794
:103000004B015C010E94C707681979098A099B096D
:103010006C157D058E059F05A8F3FF90EF90DF905E
:10302000CF90BF90AF909F908F9008952091B3055F
:103030003091B405C901079697FD079623E0959551
:1030400087952A95E1F72091B1053091B205829FCD
:10305000A001839F500D929F500D112470E060E0FD
:103060008091CC059091CD050C94D129FC019B0158
:10307000BA0181E09FEE9183808381E0868330876F
:1030800027838FEF8283838384838583A901CF0184
:1030900009960C94C829CF93DF93CDB7DEB7CB54F4
:1030A000D1090FB6F894DEBF0FBECDBF92E02B96CC
:1030B0009FAF2B972C968FAF2C97AE01465B5F4F3F
:1030C00062E070E0CE0101960E943618CE010196B2
:1030D0000E947E05CE0101960E94440781110EC018
:1030E0008F81873059F48A85C55BDF4F0FB6F8941E
:1030F000DEBF0FBECDBFDF91CF91089581E0F4CF49
:10310000CF93DF93CDB7DEB7CA54D1090FB6F89489
:10311000DEBF0FBECDBF81E02B968FAF2B97AE01E8
:10312000465B5F4F61E070E0CE0101960E94361869
:10313000CE0101960E947E05CE0101960E944407B1
:1031400081110EC08F81873059F48A85C65BDF4FAD
:103150000FB6F894DEBF0FBECDBFDF91CF910895BB
:1031600081E0F4CF0E94C329FB0101900020E9F720
:103170003197AF01461B570BDC01ED91FC910280AA
:10318000F381E02D09948F929F92AF92BF92EF92BC
:10319000FF920F931F93CF93DF93CDB7DEB7A19725
:1031A0000FB6F894DEBF0FBECDBF7C01FA01CB0194
:1031B00019A2223008F42AE08E010F5D1F4F822EE3
:1031C000912CB12CA12CBF01A50194010E9476285D
:1031D000F901CA016A300CF5605DD8016E938D016A
:1031E000232B242B252B79F790E080E0109721F0FA
:1031F000BD01C7010E94B418A1960FB6F894DEBFB6
:103200000FBECDBFDF91CF911F910F91FF90EF9037
:10321000BF90AF909F908F900895695CDECFCF9361
:10322000DF93262F482F50E070E060E084EC94E0BC
:103230000E94C318EC016DE671E084EC94E00E94FA
:10324000B4188C0F9D1FDF91CF9108950F931F939A
:1032500082E00E945A06892B91F50E94C7070091CF
:10326000A9051091AA052091AB053091AC05601B12
:10327000710B820B930B6D3D754081059105F8F044
:103280000E94C7076093A9057093AA058093AB05B8
:103290009093AC05809104018F5F843070F480932B
:1032A00004014091040150E070E060E02AE084EC09
:1032B00094E01F910F910C94C31881E0F0CF1F91FF
:1032C0000F9108950F931F93CF93DF93EC010E940A
:1032D000B4188C016DE671E0CE010E94B418800F25
:1032E000911FDF91CF911F910F91089585ED8093EC
:1032F000BC0080919C0490919D04A0919E04B0918B
:103300009F040796A11DB11D23E0B695A79597953B
:1033100087952A95D1F72091BC0024FD03C0109217
:103320009A04089540919C0450919D0460919E04DC
:1033300070919F04452B462B472B69F30097A105FD
:10334000B10541F02AE22A95F1F700C00197A109E1
:10335000B109E1CF80919B040C94920A1F920F92C5
:103360000FB60F9211242F933F938F939F93AF9398
:10337000BF938091460490914704A0914804B09176
:1033800049043091450423E0230F2D3758F5019669
:10339000A11DB11D209345048093460490934704DA
:1033A000A0934804B093490480914A0490914B043F
:1033B000A0914C04B0914D040196A11DB11D8093C4
:1033C0004A0490934B04A0934C04B0934D04BF91D6
:1033D000AF919F918F913F912F910F900FBE0F90C2
:1033E0001F90189526E8230F0296A11DB11DD2CF7C
:1033F0001F920F920FB60F9211242F933F934F936A
:103400005F936F937F938F939F93AF93BF93EF934C
:10341000FF93E0910201F09103010995FF91EF9173
:10342000BF91AF919F918F917F916F915F914F91DC
:103430003F912F910F900FBE0F901F9018951F92E4
:103440000F920FB60F9211242F933F934F935F93D8
:103450006F937F938F939F93AF93BF93EF93FF935C
:10346000E0910001F09101010995FF91EF91BF9169
:10347000AF919F918F917F916F915F914F913F910C
:103480002F910F900FBE0F901F9018951F920F92C3
:103490000FB60F9211242F933F934F935F936F9327
:1034A0007F938F939F93AF93BF93EF93FF9384EC9E
:1034B00094E00E948B08FF91EF91BF91AF919F9193
:1034C0008F917F916F915F914F913F912F910F90CD
:1034D0000FBE0F901F9018951F920F920FB60F926C
:1034E00011242F938F939F93EF93FF93E091D40434
:1034F000F091D5048081E091DA04F091DB0482FD43
:103500001BC090818091DD048F5F8F732091DE045A
:10351000821741F0E091DD04F0E0EC53FB4F958F12
:103520008093DD04FF91EF919F918F912F910F90E8
:103530000FBE0F901F9018958081F4CF1F920F92AD
:103540000FB60F9211242F933F934F935F936F9376
:103550007F938F939F93AF93BF93EF93FF93E091EC
:10356000F005F091F105309749F0A685B78585857E
:10357000968D91FF14C09C918923A1F4FF91EF9146
:10358000BF91AF919F918F917F916F915F914F917B
:103590003F912F910F900FBE0F901F9018959C9107
:1035A000892361F7A389B4899C91858980958923B2
:1035B0008C93868997890197F1F7608D718DA68527
:1035C000B785558538E020E0CB010197F1F7822FD0
:1035D00090E095958795282F4C91452309F0206818
:1035E000315091F7868D81FD20958091410490E0C6
:1035F00001968F73992730914004381799F0A09164
:103600004104B0E0A050BC4F2C9380934104828DC4
:10361000938D0197F1F7A389B4898C919589892BB2
:103620008C93ACCF868D8160868FF1CF1F920F92E5
:103630000FB60F9211242F933F934F935F936F9385
:103640007F938F939F93AF93BF93EF93FF9380915B
:10365000B900887F803609F44AC0F0F5883209F451
:10366000A7C018F5803109F49BC0B8F4882309F489
:10367000F9C0883009F494C0FF91EF91BF91AF91E8
:103680009F918F917F916F915F914F913F912F917A
:103690000F900FBE0F901F901895883109F488C0C5
:1036A000803251F78093980414C0803409F49DC08F
:1036B00040F48033B9F38833F9F68093980485ECAD
:1036C000B0C0803509F485C0883509F496C08834C7
:1036D00099F60E947619D0CF883909F48CC038F554
:1036E000883729F050F4883611F0803729F683E0C6
:1036F00080939A041092FF0357C0883809F47BC066
:10370000803919F0803809F0B7CF8091FF038032FB
:1037100008F071C0E091FF0381E08E0F8093FF03FA
:103720008091BB00F0E0E152FC4F80833DC0803BC4
:1037300039F0E0F4803A09F479C0883A09F09CCF76
:1037400084E080939A041092DE031092DD03E091EE
:103750007004F091710409958091DD0381110FC00F
:1037600081E08093DD031092BD0309C0803C09F421
:10377000A6CF883C09F4A3CF883B09F07DCFE09128
:10378000DE0381E08E0F8093DE03F0E0E354FC4F14
:1037900080818093BB009091DE038091DD0329C07E
:1037A000809175048093BB0085EC8093BC0064CF4E
:1037B0009091970480919604981758F5E09197049A
:1037C00081E08E0F80939704F0E0EA58FB4F8081F0
:1037D000E9CFE091970481E08E0F80939704809168
:1037E000BB00F0E0EA58FB4F8083909197048091F2
:1037F00096049817C8F285E8D8CFE091970481E045
:103800008E0F809397048091BB00F0E0EA58FB4F45
:1038100080838091990481115CCF81E0809374044E
:1038200084EA8093BC0010929A0426CF85EC8093A2
:10383000BC0010929A048091FF03803230F4E09132
:10384000FF03F0E0E152FC4F10826091FF0370E053
:10385000E0916E04F0916F048FED93E00995109262
:10386000FF030ACF1092980434CF8091ED05909118
:10387000EE05009711F00E943A2983E391E09093BE
:10388000AE058093AD058091CC059091CD05009754
:1038900011F00E943A298FE591E09093F30580930F
:1038A000F2058091F0059091F105825F954071F4E9
:1038B000E0910506F09106069081809107068095BB
:1038C000892380831092F1051092F00508951092DB
:1038D000C7041092C60488EE93E0A0E0B0E08093A5
:1038E000C8049093C904A093CA04B093CB042FE0FA
:1038F00031E03093C5042093C40425EC30E03093CC
:10390000D1042093D00424EC30E03093D3042093EE
:10391000D20420EC30E03093D5042093D40421EC81
:1039200030E03093D7042093D60422EC30E030937B
:10393000D9042093D80426EC30E03093DB042093A4
:10394000DA041092DD041092DE041092DF0410926B
:10395000E0041092F5051092F4058093F60590931B
:10396000F705A093F805B093F9058FE591E09093E2
:10397000F3058093F2051092090610920806109242
:103980000B0610920A0610920D0610920C06109269
:103990000F0610920E06609110066E7F6D7F609389
:1039A00010066695617081E0682787E00E948306B3
:1039B00061E087E00E94B106ECE7FAE0E491E09371
:1039C0000206E8E6FAE0E491F0E0EE0FFF1FE95AA4
:1039D000F54F85919491909304068093030660E0DF
:1039E00086E00E94B1068091100681FD04C061E06E
:1039F00086E00E94830682EF95E026E02093FE0594
:103A0000EBE7FAE0E491E093FF05E7E6FAE0E49102
:103A1000F0E0EE0FFF1FE35BF54F259134913093FB
:103A200001062093000610926C0510926B0510920F
:103A30006E0510926D0520E430E030937005209300
:103A40006F0510927205109271054FEF5FEFBA018A
:103A500040937305509374056093750570937605D4
:103A6000309378052093770520E031EE30937A0586
:103A70002093790510927B0510927C0510927D05AC
:103A800010927E0540937F055093800560938105D9
:103A90007093820510929C0510929B0590939A0555
:103AA0008093990590939805809397050E94C70786
:103AB000609361057093620580936305909364053C
:103AC0000E947B0A1092A00510929F0588EE93E059
:103AD000A0E0B0E08093A1059093A205A093A30578
:103AE000B093A40581E291E090939E0580939D059B
:103AF0001092B0051092AF0520E830E03093B20587
:103B00002093B10580E290E09093B4058093B305D3
:103B10003093B6052093B5059093B8058093B7050B
:103B20001092C3051092BA051092B9051092BC0507
:103B30001092BB0581E08093C2058093C1052FEFF1
:103B40003FEF3093C0052093BF053093BE0520930F
:103B5000BD058093C4051092C5051092C70510924B
:103B6000C60583E391E09093AE058093AD05109276
:103B7000C9051092C8058DE995E09093CB05809317
:103B8000CA051092CD051092CC058FEF8093D10518
:103B90008093D2058093D3058093D40584E08093ED
:103BA000D50580E58093EB051092EC051092EE05AB
:103BB0001092ED051092EF050E94C7076093A905CA
:103BC0007093AA058093AB059093AC050895CF93AD
:103BD000DF93CDB7DEB7CF54D1090FB6F894DEBF6F
:103BE0000FBECDBF789484B5826084BD84B58160FA
:103BF00084BD85B5826085BD85B5816085BD8091B8
:103C00006E00816080936E0010928100809181002F
:103C10008260809381008091810081608093810027
:103C2000809180008160809380008091B1008460E9
:103C30008093B1008091B00081608093B00080914A
:103C40007A00846080937A0080917A008260809309
:103C50007A0080917A00816080937A0080917A0066
:103C6000806880937A001092C100E091D404F091B2
:103C7000D50402E00083E091D004F091D1041082D9
:103C8000E091D204F091D3048FEC80831092DC0495
:103C9000E091D804F091D90416E01083E091D604A5
:103CA000F091D704808180618083E091D604F09107
:103CB000D704808188608083E091D604F091D70496
:103CC000808180688083E091D604F091D704808160
:103CD0008F7D808368EE73E080E090E00E941207A1
:103CE000E0919B05F0919C05309731F1A089B18955
:103CF0000C93A089B1891C92A485B5851C92A685D8
:103D0000B78580E18C93108EA489B5891C93A28914
:103D1000B3898C9180618C93A289B3898C918860DE
:103D20008C93A289B3898C9180688C930288F389E3
:103D3000E02D80818F7D8083E0919905F0919A0537
:103D4000309709F477C0138E128E118E108E178A59
:103D5000168A82E490E0958F848F8485863108F0FE
:103D60003DC02FE030E0378B268B20E430E0318FF0
:103D7000208F27E230E0338F228F909168008830C7
:103D800008F48CC021E08E3008F420E081E001C00E
:103D9000880F2A95EAF7892B8093680094852DE691
:103DA00030E0983050F02BE630E09E3030F02CE6DA
:103DB00030E0963110F030E020E0348B238B292F57
:103DC00030E0983008F06CC081E001C0880F9A950F
:103DD000EAF7858B848D958D0197F1F7828D938D10
:103DE000892B41F14091F0055091F105E417F50759
:103DF00009F14115510569F0DA0153962D913C9175
:103E0000D9019C91DA0155968C9180958923D9012D
:103E10008C93868D8E7F868F109241041092400481
:103E2000F093F105E093F005A389B4898C9195890D
:103E3000892B8C9383E12B968FAF2B9780917B05F9
:103E400090917C0520917D0530917E052C963FAFA9
:103E50002C972D962FAF2D972E969FAF2E972F969E
:103E60008FAF2F97AE01465B5F4F65E070E0FE01BC
:103E700031963F01CF010E943618C3010E947E0592
:103E8000C3010E9444078823C1F060E771E084EC1D
:103E900094E00E9462190E94C707FDCF84E07BCFA7
:103EA0009E3040F42850310981E001C0880F2A95E6
:103EB000EAF78FCF2E503109F7CF8F81873029F75E
:103EC0008A858111E2CF61E871E084EC94E00E9480
:103ED000621960E085E00E94B10661E088E00E941E
:103EE000B10662E082E00E94B10686E299E1909319
:103EF000010180930001809169008C7F8260809332
:103F00006900E89A60E088E00E94830661E084E04E
:103F10000E94B10661E084E00E9483068091CC0596
:103F20009091CD05892B11F10E9416182091B305AF
:103F30003091B4058091B1059091B20521323105DF
:103F40000CF063C1B9016052710977FF02C06F5F65
:103F50007F4F759567958357910997FD019600E20C
:103F600010E023E730E04AE855E062C12091B30554
:103F70003091B405C901079697FD0796B3E0959572
:103F80008795BA95E1F72091B1053091B205AC0162
:103F9000429FC001439F900D529F900D11240E949B
:103FA0009E289093CD058093CC05892B09F0BCCF3A
:103FB00060ED77E080E090E00E94F4170E947B0AB9
:103FC0008AE58093EF058091ED059091EE050097CD
:103FD00011F00E943A2986E090E00E949E288C0110
:103FE0008AE5D8018C938DE995E012969C938E9387
:103FF000119713961C92139780E290E015969C936C
:104000008E9314971093EE050093ED050E947B0AA2
:1040100081E0F8018383C8010E94FC0C93E0292E03
:10402000312C44244394512C88E60E94710560E0B1
:104030008DE995E00E94CA0C8DE995E00E94F90C8B
:1040400081117DC041E067E088E60E94A30B1092D9
:10405000730480937204873008F471C08DE995E091
:104060000E948A0CE82E829587709E2D9F70F92EF3
:10407000FAE08F9FF00C11248DE995E00E948A0CE4
:10408000982F92959F708F70082F2AE0929F000DB5
:1040900011248DE995E00E948A0C982F92959370D7
:1040A0008F70182F4AE0949F100D11248DE995E030
:1040B0000E948A0C8DE995E00E948A0C8DE995E0BA
:1040C0000E948A0C8DE995E00E948A0CE7FC37C0BB
:1040D0000E94161881E08093C1058093C20550921A
:1040E000C0054092BF055092BE054092BD0510929A
:1040F000BA051092B9051092BC051092BB051F922B
:10410000FF921F920F931F921F938EE891E09F934F
:104110008F937F926F920E94D829B3018DEA95E028
:104120000E9462190E94761668EE73E080E090E0CB
:104130000E94F4170FB6F894DEBF0FBECDBF85E026
:104140000E945A06892B09F0D0C287E08983C0906B
:10415000ED05D090EE05D60114968D919C911597A2
:10416000892B09F43EC28C910E947105F601818170
:104170009281DC01ED91FC910280F381E02D41E020
:1041800050E0B3010995019709F02BC280E00E942D
:10419000B30A811126C2F12CE12CF60184819581AC
:1041A00081010E191F098017910708F48C0141E065
:1041B000C101801B910BE816F90608F440E0602F5E
:1041C000D6018C910E94A30B109273048093720409
:1041D0008017110609F005C25301AE0CBF1C450142
:1041E000C501881999098017910708F0F0C1F601F7
:1041F00081819281DC01ED91FC910284F385E02DB7
:104200000995F50181935F01EBCFB9016054710904
:1042100077FF02C06F5F7F4F759567958255910953
:1042200097FD019600E410E022E530E04AE657E011
:10423000959587950E94021282E08093CF05809128
:10424000CA059091CB05892B09F4CBC08CE38093F0
:10425000CE050E947B0A8091D50587FD1EC061E0D6
:104260000E94B10661E08091D5050E94830661E05D
:1042700070E080E090E00E94120760E08091D50538
:104280000E9483066AE070E080E090E00E941207DE
:1042900061E08091D5050E9483068091CA059091C6
:1042A000CB05892B09F45CC12091E2053091E3052F
:1042B0004091E4055091E50560E074E284EF90E000
:1042C0000E94762820513109410951095695479598
:1042D000379527952093B80064E086E895E00E9422
:1042E0006E156091B30561508DEA95E00E94161637
:1042F00064E082E895E00E946E158091CF0560E150
:10430000813009F064E18DEA95E00E94161664E0C0
:104310008EE795E00E946E158FE88093EA05809104
:10432000B1059091B2058038910509F032C18091B4
:10433000B3059091B4058034910509F03AC180919C
:10434000CF05813009F023C18FE98093EA0512E19E
:104350006AED8DEA95E00E941616612F8DEA95E0D0
:104360000E94161661E88DEA95E00E94161660918B
:10437000EA058DEA95E00E94161669ED8DEA95E052
:104380000E9416168091CF0562E2813009F061EF3C
:104390008DEA95E00E94161666E088E795E00E9497
:1043A0006E158091CA059091CB05892B09F405C142
:1043B0002091E6053091E7054091E8055091E90527
:1043C00060E074E284EF90E00E9476282051310989
:1043D0004109510956954795379527952093B8007F
:1043E000E7CD61E08091D3050E94B10661E0809144
:1043F000D4050E94B1068091D305082E000C990BBC
:10440000FC01EF59F54FE491F0E0EE0FFF1FE95A80
:10441000F54F259134913093DB052093DA05FC01AB
:10442000EB58F54FE491E093E0058091D405082E18
:10443000000C990BFC01EF59F54FE491F0E0EE0F01
:10444000FF1FE95AF54FA591B491B093DD05A093F4
:10445000DC05FC01EB58F54FE491E093E1058C910C
:10446000E82BEC938091C8059091C905892B09F43C
:1044700034C01FB7F89480914204811127C0EBE645
:10448000FAE08491EFE7FAE09491E82FF0E0EE0F84
:10449000FF1FE65DF54FA591B491EC91E92321F45E
:1044A00061E08AE00E94830661E08AE00E94B10632
:1044B0008CB580618CBD8CB580648CBD61E08DE075
:1044C0000E94B10661E08BE00E94B1068091420437
:1044D0008F5F809342041FBFBECE61E08091D10503
:1044E0000E94B10661E08091D2050E94B1068091E0
:1044F000D105082E000C990BFC01EF59F54FE49102
:10450000F0E0EE0FFF1FE95AF54F259134913093FB
:10451000D7052093D605FC01EB58F54FE491E093C5
:10452000DE058091D205082E000C990BFC01EF5995
:10453000F54FE491F0E0EE0FFF1FE95AF54FA5911A
:10454000B491B093D905A093D805FC01EB58F54F71
:10455000E491E093DF058C91E095E823EC937BCE2A
:104560008091C8059091C905892B31F08091EB05A8
:104570009091EC050E947316E091DC05F091DD0549
:1045800090818091E105809589238083A5CE8FEC71
:10459000DCCE8036910569F48091B3059091B40525
:1045A000409739F48091CF05813029F480E18093E0
:1045B000EA0512E0CDCE8FEAFACFE091DC05F0916A
:1045C000DD0580819091E105892B8083F1CCE00E9F
:1045D000F11EF3E0EF16F10408F4DFCD69817A8172
:1045E00002C070E060E090E080E00E9460266B0115
:1045F0007C0120E030E0A9010E945B26882309F4B9
:10460000A1C02AE037ED43EA5CE3C701B6010E948E
:10461000C12623E333E948E853E40E94D0276B0125
:104620007C0161E088E00E9483066AEF70E080E030
:1046300090E00E94F41760E088E00E9483060E94E8
:10464000161881E08093C1058093C2055092C00581
:104650004092BF055092BE054092BD051092BA052A
:104660001092B90545E050E05093BC054093BB055E
:1046700063EA71E08DEA95E00E94B418A701960103
:10468000C701B6010E9471286AEA71E081111BC05E
:1046900046015701E894B7F82FEF3FEF4FE75FE788
:1046A000C501B4010E947128811153C02FEF3FEF63
:1046B0004FE75FE7C501B4010E945B2618160CF0B6
:1046C00048C06EEA71E08DEA95E00E94B41866EB8E
:1046D00071E08DEA95E00E9462190E94761668EEFC
:1046E00073E080E090E00E94F417F8948091040158
:1046F000813009F001C10E94C509809344048823D8
:1047000009F4B8C269EB71E084EC94E00E94B4183B
:104710006AE070E0809144040E940F190E948018A2
:10472000813009F4AAC008F492C06DEE71E08230C5
:1047300009F4A5C063E072E0833009F4A0C061E130
:1047400072E09DC0C12CD12C80ECE82E8FE7F82EB2
:1047500068CF2FEF3FEF4FE75FE4C701B6010E943C
:104760006C2818161CF462EB71E0ADCF2FEF3FEF11
:104770004FE75FECC701B6010E945B2687FDF3CFD0
:1047800020E030E0A901C701B6010E945B2687FF47
:1047900009C06DE28DEA95E00E94560FF7FAF09499
:1047A000F7F8F0942AE037ED43EA5BE3C701B6017E
:1047B0000E94D1274B015C010E943D286B017C01C6
:1047C0000E9460269B01AC01C501B4010E94D02764
:1047D0004B015C012AE0B701A6018DEA95E00E9439
:1047E000C3186EE28DEA95E00E94560F20E030E09B
:1047F00040E251E4C501B4010E94C1264B015C01B5
:104800000E943D286B01F12CE12C2AE0B701A601A2
:104810008DEA95E00E94C318C701B6010E94602688
:104820009B01AC01C501B4010E94D02720E030E01B
:1048300040E251E40E94C1260E943D28AB0170E095
:1048400060E02AE08DEA95E00E94C31840CF61EE57
:1048500071E084EC94E00E94621981E00E944B18A0
:10486000863009F443C008F0CEC0882369F0813057
:1048700009F4E2C061E172E03BC06FEE71E084ECEC
:1048800094E00E9462194ACF6FE172E084EC94E0F8
:104890000E9462196FE272E084EC94E00E94621957
:1048A0000E9480188230E1F762E573E084EC94E0C6
:1048B0000E94B4186AE070E0809144040E940F19CD
:1048C00061E772E084EC94E00E9462190E94801813
:1048D000813009F4A7C048F1823009F49CC063E03C
:1048E00072E0833079F361E172E0ECCF6DE372E066
:1048F00084EC94E00E94621980910401823009F0F6
:104900006BC10E948018813009F4C0C008F4ACC0AB
:1049100063E373E0823009F413C163E072E0833033
:1049200009F40EC161E172E00BC161EE71E084EC4B
:1049300094E00E94621982E00E944B188630B1F226
:1049400008F061C0811193CF6FE172E084EC94E0D4
:104950000E94621969E872E084EC94E00E94B41845
:104960006AE070E0809144040E940F1985E02B9664
:104970008FAF2B97AE01465B5F4F61E070E0C301E4
:104980000E943618C3010E947E05C3010E9444079D
:1049900081114BC08F81873009F047C08A8590E034
:1049A000009709F046C06EE972E084EC94E00E9442
:1049B00062198091440456E02B965FAF2B9791E0EB
:1049C0002C969FAF2C972D961FAE2D972E968FAFBE
:1049D0002E97AE01465B5F4F64E070E0C3010E941A
:1049E0003618C3010E947E05C3010E94440781114D
:1049F0001EC08F818730D9F48A8590E0009729F511
:104A000069EC72E075CF873019F0853109F032CF4B
:104A10006DE472E06DCF6DEE71E084EC94E00E9485
:104A2000B41854CF6FEE71E04DCF81E0B8CF81E084
:104A3000E4CF8130910519F46FEE71E059CF6EEA41
:104A400072E00A9709F016CF53CF81309105A1F398
:104A500061ED72E08B30910509F44ACF489709F077
:104A600009CF62EF72E044CF61EE71E084EC94E034
:104A70000E94621981E00E944B18863009F45EC0E2
:104A800040F4882371F0813009F04CCF6FEE71E073
:104A900057C0873019F0853109F044CF6DE472E0DA
:104AA0004FC06FE172E084EC94E00E9462192E9690
:104AB0001FAE1EAE2E9784E02B968FAF2B9781E012
:104AC0002C968FAF2C9780916F05909170052F9643
:104AD0009FAF2F9760968FAF6097AE01465B5F4F99
:104AE00066E070E0C3010E943618C3010E947E0593
:104AF000C3010E9444078111C9CF8F81873031F6ED
:104B00008B859C85982789279827909366058093A5
:104B100065058D859E859827892798279093680538
:104B2000809367058A85882381F0813009F4AECFB0
:104B30006EE173E0893009F0F5CE02C06DE372E0FA
:104B400084EC94E00E9462190AC069E073E084EC8E
:104B500094E00E94621980916505809343048091DE
:104B600043048823B9F10E94161881E08093C1059F
:104B70008093C2055092C0054092BF055092BE0579
:104B80004092BD051092BA051092B9058AE090E0F6
:104B90009093BC058093BB0569E073E08DEA95E0D6
:104BA0000E94621966E473E08DEA95E00E94621942
:104BB0004091430450E070E060E02AE08DEA95E027
:104BC0000E94C3180E94761668EE73E080E090E0C1
:104BD0000E94F4171092430480910401833009F07D
:104BE00048C00E94C50980934404882309F442C048
:104BF00066E573E084EC94E00E94B4186AE070E02B
:104C0000809144040E940F19809144042F961DAE98
:104C10001EAE1FAE2F979CE02B969FAF2B9791E077
:104C20002F969FAF2F972C961FAE2C972D968FAF58
:104C30002D97AE01465B5F4F65E070E0C3010E94B7
:104C40003618C3010E947E05C3010E9444078111EA
:104C50000AC08F81873039F41A856EE773E011231B
:104C600021F01130A1F46FEE71E084EC94E00E9429
:104C700062197894A0E0B0E0AB2B09F4D5C90E948A
:104C80007708882309F4D0C90E940000CDC967E8DD
:104C900073E01B3051F362EF72E0183131F369EACF
:104CA00073E084EC94E00E94B41860E170E0812F1E
:104CB0000E940F19DECF0E949D2608F481E008951E
:104CC000E89409C097FB3EF49095809570956195A6
:104CD0007F4F8F4F9F4F9923A9F0F92F96E9BB275C
:104CE0009395F695879577956795B795F111F8CFD8
:104CF000FAF4BB0F11F460FF1BC06F5F7F4F8F4F43
:104D00009F4F16C0882311F096E911C0772321F038
:104D10009EE8872F762F05C0662371F096E8862FD0
:104D200070E060E02AF09A95660F771F881FDAF727
:104D3000880F9695879597F90895990F0008550F54
:104D4000AA0BE0E8FEEF16161706E807F907C0F011
:104D500012161306E407F50798F0621B730B840B19
:104D6000950B39F40A2661F0232B242B252B21F4F3
:104D700008950A2609F4A140A6958FEF811D811D93
:104D800008950E94D4260C9445270E94372738F0B6
:104D90000E943E2720F0952311F00C942E270C94AE
:104DA000342711240C9479270E94562770F3959F7D
:104DB000C1F3950F50E0551F629FF001729FBB2712
:104DC000F00DB11D639FAA27F00DB11DAA1F649FAE
:104DD0006627B00DA11D661F829F2227B00DA11D61
:104DE000621F739FB00DA11D621F839FA00D611DE7
:104DF000221F749F3327A00D611D231F849F600D08
:104E0000211D822F762F6A2F11249F5750409AF030
:104E1000F1F088234AF0EE0FFF1FBB1F661F771FBC
:104E2000881F91505040A9F79E3F510580F00C9487
:104E30002E270C9479275F3FE4F3983ED4F38695B0
:104E400077956795B795F795E7959F5FC1F7FE2B27
:104E5000880F911D9695879597F9089597F99F6703
:104E600080E870E060E008959FEF80EC08950024F2
:104E70000A941616170618060906089500240A94BF
:104E800012161306140605060895092E0394000C45
:104E900011F4882352F0BB0F40F4BF2B11F460FFD4
:104EA00004C06F5F7F4F8F4F9F4F089557FD9058FD
:104EB000440F551F59F05F3F71F04795880F97FBDE
:104EC000991F61F09F3F79F0879508951216130698
:104ED0001406551FF2CF4695F1DF08C016161706C7
:104EE0001806991FF1CF86957105610508940895FC
:104EF000E894BB2766277727CB0197F908950E948E
:104F0000C127A59F900DB49F900DA49F800D911D6A
:104F1000112408952F923F924F925F926F927F9249
:104F20008F929F92AF92BF92CF92DF92EF92FF92B9
:104F30000F931F93CF93DF93CDB7DEB7CA1BDB0B65
:104F40000FB6F894DEBF0FBECDBF09942A8839880A
:104F500048885F846E847D848C849B84AA84B98411
:104F6000C884DF80EE80FD800C811B81AA81B9811D
:104F7000CE0FD11D0FB6F894DEBF0FBECDBFED0131
:104F80000895A29FB001B39FC001A39F700D811D22
:104F90001124911DB29F700D811D1124911D089542
:104FA0005058BB27AA270E94E8270C9445270E9447
:104FB000372738F00E943E2720F039F49F3F19F43C
:104FC00026F40C9434270EF4E095E7FB0C942E277E
:104FD000E92F0E94562758F3BA1762077307840710
:104FE000950720F079F4A6F50C9478270EF4E09557
:104FF0000B2EBA2FA02D0B01B90190010C01CA0193
:10500000A0011124FF27591B99F0593F50F4503E3D
:1050100068F11A16F040A22F232F342F4427585F2F
:10502000F3CF469537952795A795F0405395C9F747
:105030007EF41F16BA0B620B730B840BBAF09150FF
:10504000A1F0FF0FBB1F661F771F881FC2F70EC09E
:10505000BA0F621F731F841F48F487957795679571
:10506000B795F7959E3F08F0B0CF9395880F08F05D
:105070009927EE0F9795879508950E945E2788F0EF
:105080009F5798F0B92F9927B751B0F0E1F0660F0C
:10509000771F881F991F1AF0BA95C9F714C0B1304D
:1050A00091F00E947827B1E008950C947827672F3B
:1050B000782F8827B85F39F0B93FCCF3869577957C
:1050C0006795B395D9F73EF4909580957095619565
:1050D0007F4F8F4F9F4F08950E949D2608F48FEFBA
:1050E00008950E949D26880B990B0895A1E21A2E1F
:1050F000AA1BBB1BFD010DC0AA1FBB1FEE1FFF1F7C
:10510000A217B307E407F50720F0A21BB30BE40BCB
:10511000F50B661F771F881F991F1A9469F7609512
:105120007095809590959B01AC01BD01CF010895CC
:10513000EE0FFF1F0590F491E02D09940F931F933C
:10514000CF93DF938230910510F482E090E0E091FC
:105150001306F091140630E020E0B0E0A0E03097B4
:1051600099F42115310509F44AC0281B390B243064
:105170003105D8F58A819B816115710589F1FB01A3
:1051800093838283FE0111C040815181028113818A
:1051900048175907E0F04817590799F4109761F03C
:1051A00012960C93129713961C933296CF01DF91AF
:1051B000CF911F910F910895009313061093140639
:1051C000F4CF2115310551F04217530738F0A901EA
:1051D000DB019A01BD01DF01F801C1CFEF01F9CF79
:1051E0009093140680931306CDCFFE01E20FF31FB8
:1051F000819391932250310939832883D7CF20910D
:10520000110630911206232B41F4209107013091B1
:105210000801309312062093110620910501309168
:1052200006012115310541F42DB73EB74091090122
:1052300050910A01241B350BE0911106F0911206E2
:10524000E217F307A0F42E1B3F0B2817390778F05D
:10525000AC014E5F5F4F2417350748F04E0F5F1FBC
:105260005093120640931106819391939FCFF0E0E3
:10527000E0E09CCFCF93DF930097E9F0FC013297F9
:1052800013821282A0911306B0911406ED0130E052
:1052900020E01097A1F420813181820F931F20918B
:1052A0001106309112062817390709F061C0F093F2
:1052B0001206E0931106DF91CF910895EA01CE170F
:1052C000DF07E8F54A815B819E0141155105B1F781
:1052D000E901FB83EA8349915991C40FD51FEC176B
:1052E000FD0761F4808191810296840F951FE90189
:1052F00099838883828193819B838A83F0E0E0E0B5
:1053000012968D919C9113970097B9F52D913C9130
:105310001197CD010296820F931F209111063091B3
:1053200012062817390739F6309751F510921406EE
:1053300010921306B0931206A0931106BCCFD3832C
:10534000C28340815181840F951FC817D90761F42A
:105350004E5F5F4F88819981480F591F5183408369
:105360008A819B81938382832115310509F0B0CF17
:10537000F0931406E09313069ECFFD01DC01C0CF2D
:1053800013821282D7CF81E090E0F8940C94792CAC
:10539000FB01DC0102C001900D9241505040D8F752
:1053A0000895DC0101C06D9341505040E0F708952D
:1053B000AEE0B0E0EEEDF9E20C9498270D891E897D
:1053C00086E08C831A8309838FEF9FE79E838D830A
:1053D000AE01475E5F4F6F89788DCE0101960E94C6
:1053E000FB292F813885020F131FF80110822E969A
:1053F000E4E00C94B427ABE0B0E0E1E0FAE20C9416
:105400008A277C013B018A01FC0117821682838175
:1054100081FFC8C1CE0101965C01F7019381F301C0
:1054200093FD859193FF81913F01882309F453C136
:10543000853239F493FD859193FF81913F01853247
:1054400029F4B70190E00E94EB2BE7CF912C212C9F
:10545000312CFFE1F31538F08B3211F190F48032EA
:1054600009F1833229F137FC3CC020ED280F2A30A6
:1054700050F536FE20C08AE0989E200D1124922E11
:1054800006C08D3291F0803371F7689430F8F301E3
:1054900093FD859193FF81913F018111DACF21C066
:1054A000689431F8689432F8F2CF689433F8EFCF0B
:1054B000689434F8ECCFEAE02E9E200D1124222EC1
:1054C000689435F8E4CF8E3229F436FC04C1689430
:1054D00036F8DDCF8C3619F4689437F8D8CF883693
:1054E000B1F2982F9F7D95549330E0F08336A1F16F
:1054F0008337C1F1833509F063C02801F2E04F0E14
:10550000511CF801C080D180692D70E036FC02C0CA
:105510006FEF7FEFC6010E94D52B4C01689437F8DE
:1055200082010AC00C5F1F4FFFE3F9838824839434
:10553000912C6501E89437F833FE2DC0522C81146C
:10554000910471F5552009F468CFB70180E290E02D
:105550000E94EB2B5A94F6CFF801808189830E5F6D
:105560001F4FE4CF2801F2E04F0E511CF801C0801C
:10557000D180692D70E036FC02C06FEF7FEFC6016D
:105580000E94E02B4C018201D5CFB70180E290E070
:105590000E94EB2B2A942814190409F0B0F7CECFFF
:1055A000F60137FC859137FE81916F01B70190E0DC
:1055B0000E94EB2B51105A94F1E08F1A9108BFCF43
:1055C000843619F0893609F077C0F80137FE6BC0D0
:1055D00060817181828193810C5F1F4FF32DFF7673
:1055E0003F2E97FF09C090958095709561957F4FEC
:1055F0008F4F9F4F689437F82AE030E0A5010E9452
:105600001B2CC82ECA188C2C432C36FE0CC0E894D8
:1056100040F8C91440F434FE05C032FC03C0F32D39
:10562000FE7E4F2E892C44FE95C0FE01EC0DF11D2F
:105630008081803309F087C0242D297E422E842D5D
:105640008870582E43FC95C040FE8FC09C2C82145D
:1056500018F42C0C922C981844FE91C0B70180E3EA
:1056600090E00E94EB2B42FE09C088E790E041FEEB
:1056700002C088E590E0B7010E94EB2BC91408F442
:105680008AC0CA94D12C9FEFC91AD90ACA0CDB1C54
:10569000F60182916F01B70190E00E94EB2BAC14F0
:1056A000BD04B1F74FCF60817181072E000C880BCC
:1056B000990B0E5F1F4F92CFD32CE894D4F82AE0B9
:1056C00030E0853739F1232D297FD22E8F3601F135
:1056D00048F48835A9F0F701868197812B96E2E19D
:1056E0000C94A627803749F08837A9F7D4FE02C06A
:1056F0006894D2F820E130E00DC06894D4F8F6CF79
:1057000034FE03C0822F8660D82E20E132E002C032
:1057100028E030E0F801D7FE0FC0608171818281FE
:1057200093810C5F1F4FA5010E941B2CC82ECA1825
:105730003D2CE89437F867CF6081718190E080E07C
:105740000E5F1F4FF0CF42FC02C0839478CF83944A
:10575000839475CF842D867809F471CFF6CFB70185
:1057600080E290E00E94EB2B83948214C0F3512CD2
:1057700073CF522C5818821408F46ECFF8CF842DB2
:10578000867809F47BCF8BE241FE80E247FC8DE214
:10579000B70190E071CFB70180E390E00E94EB2B5E
:1057A0009A946CCF8FEF9FEF99CFFC0105906150D9
:1057B00070400110D8F7809590958E0F9F1F089527
:1057C000FC016150704001900110D8F780959095D0
:1057D0008E0F9F1F08950F931F93CF93DF93182F62
:1057E000092FEB018B8181FD09C01FEF0FEF812F86
:1057F000902FDF91CF911F910F91089582FF14C0D8
:105800002E813F818C819D81281739073CF4E881E6
:10581000F981CF0101969983888310838E819F81BE
:1058200001969F838E83E3CFE885F985812F0995C3
:10583000892BA1F3DACFFA01AA27283051F12031C0
:1058400081F1E8946F936E7F6E5F7F4F8F4F9F4F14
:10585000AF4FB1E03ED0B4E03CD0670F781F891F56
:105860009A1FA11D680F791F8A1F911DA11D6A0F24
:10587000711D811D911DA11D20D009F468943F91D7
:105880002AE0269F11243019305D3193DEF6CF01D6
:105890000895462F4770405D4193B3E00FD0C9F79C
:1058A000F6CF462F4F70405D4A3318F0495D31FD09
:1058B0004052419302D0A9F7EACFB4E0A69597955C
:1058C000879577956795BA95C9F700976105710532
:1058D00008959B01AC010A2E06945795479537957C
:1058E0002795BA95C9F7620F731F841F951FA01DD6
:1058F000089515E0C6E4D5E004C0FE010E94982892
:0C5900002196C734D107C9F7F894FFCFF7
:10590C00DA07DA070200001506800000000000AD7F
:10591C0008DB070808FA086B0817082B08000000BA
:10592C0000CA0C9D0CF1177D05D3078A0C7B0C006B
:10593C00000000560FDB07F117F017B7147D05FBBD
:10594C0011D311EF11E31163127D051C0D9A17276A
:10595C001470141C11FF1087102810000000003266
:10596C0009DB07F1177D058E09A4091A090D0A0038
:10597C0053656E736F72206E6F7420666F756E64F4
:10598C000053656E736F722072656164790054699F
:10599C006D653A20253032643A253032643A253030
:1059AC0032640054656D703A20006E616E00696E51
:1059BC0066006F76660020430057616974696E67F4
:1059CC0020666F722076616C69642066696E67650B
:1059DC007220746F20656E726F6C6C206173202363
:1059EC0000496D6167652074616B656E002E004324
:1059FC006F6D6D756E69636174696F6E206572721F
:105A0C006F7200496D6167696E67206572726F72A3
:105A1C0000556E6B6E6F776E206572726F720049F7
:105A2C006D61676520636F6E766572746564005294
:105A3C00656D6F76652066696E67657200496D618C
:105A4C00676520746F6F206D6573737900436F7594
:105A5C006C64206E6F742066696E642066696E6774
:105A6C0065727072696E74206665617475726573A7
:105A7C0000506C6163652073616D652066696E67AB
:105A8C00657220616761696E004372656174696E4D
:105A9C0067206D6F64656C20666F722023005072F6
:105AAC00696E7473206D6174636865642100466966
:105ABC006E6765727072696E747320646964206EAF
:105ACC006F74206D617463680053746F7265642128
